{
  "contractName": "PIPOT",
  "abi": [
    {
      "constant": true,
      "inputs": [
        {
          "name": "",
          "type": "uint256"
        }
      ],
      "name": "games",
      "outputs": [
        {
          "name": "",
          "type": "uint256"
        }
      ],
      "payable": false,
      "stateMutability": "view",
      "type": "function"
    },
    {
      "constant": true,
      "inputs": [],
      "name": "ticketPrice",
      "outputs": [
        {
          "name": "",
          "type": "uint256"
        }
      ],
      "payable": false,
      "stateMutability": "view",
      "type": "function"
    },
    {
      "constant": true,
      "inputs": [],
      "name": "isActive",
      "outputs": [
        {
          "name": "",
          "type": "bool"
        }
      ],
      "payable": false,
      "stateMutability": "view",
      "type": "function"
    },
    {
      "constant": true,
      "inputs": [],
      "name": "allTimePlayers",
      "outputs": [
        {
          "name": "",
          "type": "uint256"
        }
      ],
      "payable": false,
      "stateMutability": "view",
      "type": "function"
    },
    {
      "constant": true,
      "inputs": [],
      "name": "allTimeJackpot",
      "outputs": [
        {
          "name": "",
          "type": "uint256"
        }
      ],
      "payable": false,
      "stateMutability": "view",
      "type": "function"
    },
    {
      "constant": true,
      "inputs": [],
      "name": "fundsDistributor",
      "outputs": [
        {
          "name": "",
          "type": "address"
        }
      ],
      "payable": false,
      "stateMutability": "view",
      "type": "function"
    },
    {
      "constant": true,
      "inputs": [],
      "name": "toogleStatus",
      "outputs": [
        {
          "name": "",
          "type": "bool"
        }
      ],
      "payable": false,
      "stateMutability": "view",
      "type": "function"
    },
    {
      "constant": true,
      "inputs": [],
      "name": "owner",
      "outputs": [
        {
          "name": "",
          "type": "address"
        }
      ],
      "payable": false,
      "stateMutability": "view",
      "type": "function"
    },
    {
      "constant": false,
      "inputs": [
        {
          "name": "_newOwnerAddr",
          "type": "address"
        }
      ],
      "name": "changeOwner",
      "outputs": [],
      "payable": false,
      "stateMutability": "nonpayable",
      "type": "function"
    },
    {
      "constant": true,
      "inputs": [],
      "name": "game",
      "outputs": [
        {
          "name": "",
          "type": "uint256"
        }
      ],
      "payable": false,
      "stateMutability": "view",
      "type": "function"
    },
    {
      "constant": true,
      "inputs": [],
      "name": "fee",
      "outputs": [
        {
          "name": "",
          "type": "uint256"
        }
      ],
      "payable": false,
      "stateMutability": "view",
      "type": "function"
    },
    {
      "inputs": [
        {
          "name": "distributor",
          "type": "address"
        }
      ],
      "payable": false,
      "stateMutability": "nonpayable",
      "type": "constructor"
    },
    {
      "anonymous": false,
      "inputs": [
        {
          "indexed": false,
          "name": "_game",
          "type": "uint256"
        },
        {
          "indexed": true,
          "name": "_time",
          "type": "uint256"
        }
      ],
      "name": "Game",
      "type": "event"
    },
    {
      "anonymous": false,
      "inputs": [
        {
          "indexed": false,
          "name": "_price",
          "type": "uint256"
        }
      ],
      "name": "ChangePrice",
      "type": "event"
    },
    {
      "anonymous": false,
      "inputs": [
        {
          "indexed": true,
          "name": "_address",
          "type": "address"
        },
        {
          "indexed": true,
          "name": "_game",
          "type": "uint256"
        },
        {
          "indexed": false,
          "name": "_number",
          "type": "uint256"
        },
        {
          "indexed": false,
          "name": "_time",
          "type": "uint256"
        },
        {
          "indexed": false,
          "name": "_price",
          "type": "uint256"
        }
      ],
      "name": "Ticket",
      "type": "event"
    },
    {
      "anonymous": false,
      "inputs": [
        {
          "indexed": false,
          "name": "_fee",
          "type": "uint256"
        }
      ],
      "name": "ChangeFee",
      "type": "event"
    },
    {
      "anonymous": false,
      "inputs": [
        {
          "indexed": false,
          "name": "_winnerAddress",
          "type": "address"
        },
        {
          "indexed": false,
          "name": "_price",
          "type": "uint256"
        },
        {
          "indexed": false,
          "name": "_jackpot",
          "type": "uint256"
        }
      ],
      "name": "Winner",
      "type": "event"
    },
    {
      "anonymous": false,
      "inputs": [
        {
          "indexed": false,
          "name": "_price",
          "type": "uint256"
        },
        {
          "indexed": false,
          "name": "_currentJackpot",
          "type": "uint256"
        }
      ],
      "name": "Lose",
      "type": "event"
    },
    {
      "constant": true,
      "inputs": [],
      "name": "getPlayedGamePlayers",
      "outputs": [
        {
          "name": "",
          "type": "uint256"
        }
      ],
      "payable": false,
      "stateMutability": "view",
      "type": "function"
    },
    {
      "constant": true,
      "inputs": [
        {
          "name": "playedGame",
          "type": "uint256"
        }
      ],
      "name": "getPlayersInGame",
      "outputs": [
        {
          "name": "",
          "type": "uint256"
        }
      ],
      "payable": false,
      "stateMutability": "view",
      "type": "function"
    },
    {
      "constant": true,
      "inputs": [],
      "name": "getPlayedGameJackpot",
      "outputs": [
        {
          "name": "",
          "type": "uint256"
        }
      ],
      "payable": false,
      "stateMutability": "view",
      "type": "function"
    },
    {
      "constant": true,
      "inputs": [
        {
          "name": "playedGame",
          "type": "uint256"
        }
      ],
      "name": "getGameJackpot",
      "outputs": [
        {
          "name": "",
          "type": "uint256"
        }
      ],
      "payable": false,
      "stateMutability": "view",
      "type": "function"
    },
    {
      "constant": false,
      "inputs": [],
      "name": "toogleActive",
      "outputs": [],
      "payable": false,
      "stateMutability": "nonpayable",
      "type": "function"
    },
    {
      "constant": false,
      "inputs": [
        {
          "name": "winPrice",
          "type": "uint256"
        }
      ],
      "name": "start",
      "outputs": [],
      "payable": false,
      "stateMutability": "nonpayable",
      "type": "function"
    },
    {
      "constant": false,
      "inputs": [
        {
          "name": "price",
          "type": "uint256"
        }
      ],
      "name": "changeTicketPrice",
      "outputs": [],
      "payable": false,
      "stateMutability": "nonpayable",
      "type": "function"
    },
    {
      "constant": false,
      "inputs": [
        {
          "name": "_fee",
          "type": "uint256"
        }
      ],
      "name": "changeFee",
      "outputs": [],
      "payable": false,
      "stateMutability": "nonpayable",
      "type": "function"
    },
    {
      "constant": false,
      "inputs": [
        {
          "name": "betPrice",
          "type": "uint256"
        }
      ],
      "name": "buyTicket",
      "outputs": [],
      "payable": true,
      "stateMutability": "payable",
      "type": "function"
    }
  ],
  "bytecode": "0x6080604052601460015567016345785d8a0000600355600060045560006005556001600660006101000a81548160ff0219169083151502179055506000600660016101000a81548160ff02191690831515021790555034801561006157600080fd5b5060405160208061117b8339810180604052810190808051906020019092919050505033806000806101000a81548173ffffffffffffffffffffffffffffffffffffffff021916908373ffffffffffffffffffffffffffffffffffffffff1602179055505080600b60006101000a81548173ffffffffffffffffffffffffffffffffffffffff021916908373ffffffffffffffffffffffffffffffffffffffff16021790555061011e610124640100000000026401000000009004565b506101dd565b600660009054906101000a900460ff16151561013f57600080fd5b43600281905550600660019054906101000a900460ff16156101a157600660009054906101000a900460ff1615600660006101000a81548160ff0219169083151502179055506000600660016101000a81548160ff0219169083151502179055505b427fc1e01725071603d5872b301174fe013f7471bd2a95a627a777cf5ad0df4df7206002546040518082815260200191505060405180910390a2565b610f8f806101ec6000396000f300608060405260043610610112576000357c0100000000000000000000000000000000000000000000000000000000900463ffffffff1680630d8c1a6214610117578063117a5b901461012e5780631209b1f61461016f57806316521a2b1461019a57806322f3e2d4146101db5780632ef5c7841461020a5780634630a0ee1461023557806347ddf87e1461026257806367dd74ca1461028d5780636a1db1bf146102ad57806374796cc2146102da57806374cb55fb1461031b57806385b75b1e146103725780638da5cb5b146103a157806395805dad146103f8578063a6f9dae114610425578063c3a151de14610468578063c3fe3e2814610493578063cf4e593a146104be578063ddca3f43146104e9575b600080fd5b34801561012357600080fd5b5061012c610514565b005b34801561013a57600080fd5b50610159600480360381019080803590602001909291905050506105d2565b6040518082815260200191505060405180910390f35b34801561017b57600080fd5b506101846105f5565b6040518082815260200191505060405180910390f35b3480156101a657600080fd5b506101c5600480360381019080803590602001909291905050506105fb565b6040518082815260200191505060405180910390f35b3480156101e757600080fd5b506101f0610618565b604051808215151515815260200191505060405180910390f35b34801561021657600080fd5b5061021f61062b565b6040518082815260200191505060405180910390f35b34801561024157600080fd5b5061026060048036038101908080359060200190929190505050610631565b005b34801561026e57600080fd5b506102776106cd565b6040518082815260200191505060405180910390f35b6102ab600480360381019080803590602001909291905050506106d3565b005b3480156102b957600080fd5b506102d860048036038101908080359060200190929190505050610926565b005b3480156102e657600080fd5b50610305600480360381019080803590602001909291905050506109c2565b6040518082815260200191505060405180910390f35b34801561032757600080fd5b506103306109e2565b604051808273ffffffffffffffffffffffffffffffffffffffff1673ffffffffffffffffffffffffffffffffffffffff16815260200191505060405180910390f35b34801561037e57600080fd5b50610387610a08565b604051808215151515815260200191505060405180910390f35b3480156103ad57600080fd5b506103b6610a1b565b604051808273ffffffffffffffffffffffffffffffffffffffff1673ffffffffffffffffffffffffffffffffffffffff16815260200191505060405180910390f35b34801561040457600080fd5b5061042360048036038101908080359060200190929190505050610a40565b005b34801561043157600080fd5b50610466600480360381019080803573ffffffffffffffffffffffffffffffffffffffff169060200190929190505050610ad1565b005b34801561047457600080fd5b5061047d610bab565b6040518082815260200191505060405180910390f35b34801561049f57600080fd5b506104a8610bbd565b6040518082815260200191505060405180910390f35b3480156104ca57600080fd5b506104d3610bc3565b6040518082815260200191505060405180910390f35b3480156104f557600080fd5b506104fe610bd5565b6040518082815260200191505060405180910390f35b6000809054906101000a900473ffffffffffffffffffffffffffffffffffffffff1673ffffffffffffffffffffffffffffffffffffffff163373ffffffffffffffffffffffffffffffffffffffff1614151561056f57600080fd5b600660009054906101000a900460ff1615156105a5576001600660006101000a81548160ff0219169083151502179055506105d0565b600660019054906101000a900460ff1615600660016101000a81548160ff0219169083151502179055505b565b6007818154811015156105e157fe5b906000526020600020016000915090505481565b60035481565b600060086000838152602001908152602001600020549050919050565b600660009054906101000a900460ff1681565b60055481565b6000809054906101000a900473ffffffffffffffffffffffffffffffffffffffff1673ffffffffffffffffffffffffffffffffffffffff163373ffffffffffffffffffffffffffffffffffffffff1614151561068c57600080fd5b806003819055507ffb92488ba7c255b32158331b4dd67ae708a8761b850ca51d1bbf57c177d35f89816040518082815260200191505060405180910390a150565b60045481565b600080600660009054906101000a900460ff1615156106f157600080fd5b6003543414151561070157600080fd5b6009600060025481526020019081526020016000208054905091506009600060025481526020019081526020016000203390806001815401808255809150509060018203906000526020600020016000909192909190916101000a81548173ffffffffffffffffffffffffffffffffffffffff021916908373ffffffffffffffffffffffffffffffffffffffff16021790555050600a6000600254815260200190815260200160002060008481526020019081526020016000203390806001815401808255809150509060018203906000526020600020016000909192909190916101000a81548173ffffffffffffffffffffffffffffffffffffffff021916908373ffffffffffffffffffffffffffffffffffffffff160217905550506064600154340281151561082f57fe5b04905080340360086000600254815260200190815260200160002060008282540192505081905550600b60009054906101000a900473ffffffffffffffffffffffffffffffffffffffff1673ffffffffffffffffffffffffffffffffffffffff166108fc829081150290604051600060405180830381858888f193505050501580156108bf573d6000803e3d6000fd5b506002543373ffffffffffffffffffffffffffffffffffffffff167fef81efcf4a8c3ae660a2e6a979976ea05957060beeafcd04103ee601c37a8c4d84428760405180848152602001838152602001828152602001935050505060405180910390a3505050565b6000809054906101000a900473ffffffffffffffffffffffffffffffffffffffff1673ffffffffffffffffffffffffffffffffffffffff163373ffffffffffffffffffffffffffffffffffffffff1614151561098157600080fd5b806001819055507ffba1d84f2e30311f1380f2355f294fbedd53264c2504378e2c4b2133dea16670816040518082815260200191505060405180910390a150565b600060096000838152602001908152602001600020805490509050919050565b600b60009054906101000a900473ffffffffffffffffffffffffffffffffffffffff1681565b600660019054906101000a900460ff1681565b6000809054906101000a900473ffffffffffffffffffffffffffffffffffffffff1681565b6000809054906101000a900473ffffffffffffffffffffffffffffffffffffffff1673ffffffffffffffffffffffffffffffffffffffff163373ffffffffffffffffffffffffffffffffffffffff16141515610a9b57600080fd5b6000600960006002548152602001908152602001600020805490501115610ac657610ac581610bdb565b5b610ace610eaa565b50565b6000809054906101000a900473ffffffffffffffffffffffffffffffffffffffff1673ffffffffffffffffffffffffffffffffffffffff163373ffffffffffffffffffffffffffffffffffffffff16141515610b2c57600080fd5b600073ffffffffffffffffffffffffffffffffffffffff168173ffffffffffffffffffffffffffffffffffffffff1614151515610b6857600080fd5b806000806101000a81548173ffffffffffffffffffffffffffffffffffffffff021916908373ffffffffffffffffffffffffffffffffffffffff16021790555050565b6000610bb86002546109c2565b905090565b60025481565b6000610bd06002546105fb565b905090565b60015481565b600080600a6000600254815260200190815260200160002060008481526020019081526020016000208054905060086000600254815260200190815260200160002054811515610c2757fe5b0491506000600a600060025481526020019081526020016000206000858152602001908152602001600020805490501115610e1857600090505b600a60006002548152602001908152602001600020600084815260200190815260200160002080549050811015610e1357600a60006002548152602001908152602001600020600084815260200190815260200160002081815481101515610cc557fe5b9060005260206000200160009054906101000a900473ffffffffffffffffffffffffffffffffffffffff1673ffffffffffffffffffffffffffffffffffffffff166108fc839081150290604051600060405180830381858888f19350505050158015610d35573d6000803e3d6000fd5b507f83180aa4ac63459a0857ee4be800e29aa03c2426bdb949e15826b88ef0c668a2600a60006002548152602001908152602001600020600085815260200190815260200160002082815481101515610d8a57fe5b9060005260206000200160009054906101000a900473ffffffffffffffffffffffffffffffffffffffff168484604051808473ffffffffffffffffffffffffffffffffffffffff1673ffffffffffffffffffffffffffffffffffffffff168152602001838152602001828152602001935050505060405180910390a18080600101915050610c61565b610e6d565b7f1c419b24136e9a6782f0ca3fc486d3e378bf772388fbd003c50f6ac84ac40a7f8360086000600254815260200190815260200160002054604051808381526020018281526020019250505060405180910390a15b8160046000828254019250508190555060096000600254815260200190815260200160002080549050600560008282540192505081905550505050565b600660009054906101000a900460ff161515610ec557600080fd5b43600281905550600660019054906101000a900460ff1615610f2757600660009054906101000a900460ff1615600660006101000a81548160ff0219169083151502179055506000600660016101000a81548160ff0219169083151502179055505b427fc1e01725071603d5872b301174fe013f7471bd2a95a627a777cf5ad0df4df7206002546040518082815260200191505060405180910390a25600a165627a7a723058205d02d530c597b2352c8ae97ab9d64115b886e40200b324b1866b65e8f59e4aa60029",
  "source": "contract Owner {\r\n    address public owner;\r\n\r\n    modifier onlyOwner() {\r\n        require(msg.sender == owner);\r\n        _;\r\n    }\r\n\r\n    function Owner(address _owner) public {\r\n        owner = _owner;\r\n    }\r\n\r\n    function changeOwner(address _newOwnerAddr) public onlyOwner {\r\n        require(_newOwnerAddr != address(0));\r\n        owner = _newOwnerAddr;\r\n    }\r\n}\r\n\r\n/**\r\n * @title SafeMath\r\n * @dev Math operations with safety checks that throw on error\r\n */\r\nlibrary SafeMath {\r\n    /**\r\n    * @dev Multiplies two numbers, throws on overflow.\r\n    */\r\n    function mul(uint256 a, uint256 b) internal pure returns (uint256) {\r\n        if (a == 0) {\r\n            return 0;\r\n        }\r\n        uint256 c = a * b;\r\n        assert(c / a == b);\r\n        return c;\r\n    }\r\n\r\n    /**\r\n    * @dev Integer division of two numbers, truncating the quotient.\r\n    */\r\n    function div(uint256 a, uint256 b) internal pure returns (uint256) {\r\n        // assert(b > 0); // Solidity automatically throws when dividing by 0\r\n        uint256 c = a / b;\r\n        // assert(a == b * c + a % b); // There is no case in which this doesn't hold\r\n        return c;\r\n    }\r\n\r\n    /**\r\n    * @dev Substracts two numbers, throws on overflow (i.e. if subtrahend is greater than minuend).\r\n    */\r\n    function sub(uint256 a, uint256 b) internal pure returns (uint256) {\r\n        assert(b <= a);\r\n        return a - b;\r\n    }\r\n\r\n    /**\r\n    * @dev Adds two numbers, throws on overflow.\r\n    */\r\n    function add(uint256 a, uint256 b) internal pure returns (uint256) {\r\n        uint256 c = a + b;\r\n        assert(c >= a);\r\n        return c;\r\n    }\r\n}\r\n\r\n\r\ncontract PIPOT is Owner {\r\n    using SafeMath for uint256;\r\n    event Game(uint _game, uint indexed _time);\r\n    event ChangePrice(uint _price);\r\n    event Ticket(\r\n        address indexed _address,\r\n        uint indexed _game,\r\n        uint _number,\r\n        uint _time,\r\n        uint _price\r\n    );\r\n    \r\n    event ChangeFee(uint _fee);\r\n    event Winner(address _winnerAddress, uint _price, uint _jackpot);\r\n    event Lose(uint _price, uint _currentJackpot);\r\n    \r\n    // Game fee.\r\n    uint public fee = 20;\r\n    // Current game number.\r\n    uint public game;\r\n    // Ticket price.\r\n    uint public ticketPrice = 0.1 ether;\r\n    // All-time game jackpot.\r\n    uint public allTimeJackpot = 0;\r\n    // All-time game players count\r\n    uint public allTimePlayers = 0;\r\n    \r\n    // Game status.\r\n    bool public isActive = true;\r\n    // The variable that indicates game status switching.\r\n    bool public toogleStatus = false;\r\n    // The array of all games\r\n    uint[] public games;\r\n    \r\n    // Store game jackpot.\r\n    mapping(uint => uint) jackpot;\r\n    // Store game players.\r\n    mapping(uint => address[]) players;\r\n    mapping(uint => mapping(uint => address[])) orders;\r\n\r\n    \r\n    // Funds distributor address.\r\n    address public fundsDistributor;\r\n\r\n    /**\r\n    * @dev Check sender address and compare it to an owner.\r\n    */\r\n    modifier onlyOwner() {\r\n        require(msg.sender == owner);\r\n        _;\r\n    }\r\n    \r\n    function PIPOT(\r\n        address distributor\r\n    )\r\n    public Owner(msg.sender)\r\n    {\r\n        fundsDistributor = distributor;\r\n        startGame();\r\n    }\r\n\r\n    function getPlayedGamePlayers() \r\n        public\r\n        view\r\n        returns (uint)\r\n    {\r\n        return getPlayersInGame(game);\r\n    }\r\n\r\n    function getPlayersInGame(uint playedGame) \r\n        public \r\n        view\r\n        returns (uint)\r\n    {\r\n        return players[playedGame].length;\r\n    }\r\n\r\n    function getPlayedGameJackpot() \r\n        public \r\n        view\r\n        returns (uint) \r\n    {\r\n        return getGameJackpot(game);\r\n    }\r\n    \r\n    function getGameJackpot(uint playedGame) \r\n        public \r\n        view \r\n        returns(uint)\r\n    {\r\n        return jackpot[playedGame];\r\n    }\r\n    \r\n    function toogleActive() public onlyOwner() {\r\n        if (!isActive) {\r\n            isActive = true;\r\n        } else {\r\n            toogleStatus = !toogleStatus;\r\n        }\r\n    }\r\n    \r\n    function start(uint winPrice) public onlyOwner() {\r\n        if (players[game].length > 0) {\r\n            pickTheWinner(winPrice);\r\n        }\r\n        startGame();\r\n    }\r\n\r\n    function changeTicketPrice(uint price) \r\n        public \r\n        onlyOwner() \r\n    {\r\n        ticketPrice = price;\r\n        emit ChangePrice(price);\r\n    }\r\n    \r\n    function changeFee(uint _fee) \r\n        public \r\n        onlyOwner() \r\n    {\r\n        fee = _fee;\r\n        emit ChangeFee(_fee);\r\n    }\r\n    \r\n    function buyTicket(uint betPrice) public payable {\r\n        require(isActive);\r\n        require(msg.value == ticketPrice);\r\n        \r\n        \r\n        uint playerNumber =  players[game].length;\r\n        \r\n        players[game].push(msg.sender);\r\n        orders[game][betPrice].push(msg.sender);\r\n        \r\n        uint distribute = msg.value * fee / 100;\r\n        \r\n        jackpot[game] += (msg.value - distribute);\r\n        \r\n        fundsDistributor.transfer(distribute);\r\n        \r\n        emit Ticket(msg.sender, game, playerNumber, now, betPrice);\r\n    }\r\n\r\n    /**\r\n    * @dev Start the new game.\r\n    * @dev Checks ticket price changes, if exists new ticket price the price will be changed.\r\n    * @dev Checks game status changes, if exists request for changing game status game status \r\n    * @dev will be changed.\r\n    */\r\n    function startGame() internal {\r\n        require(isActive);\r\n\r\n        game = block.number;\r\n        if (toogleStatus) {\r\n            isActive = !isActive;\r\n            toogleStatus = false;\r\n        }\r\n        emit Game(game, now);\r\n    }\r\n\r\n    function pickTheWinner(uint winPrice) internal {\r\n        \r\n        uint toPlayer;\r\n        \r\n        toPlayer = jackpot[game]/orders[game][winPrice].length;\r\n        \r\n        if(orders[game][winPrice].length > 0){\r\n            for(uint i = 0; i < orders[game][winPrice].length;i++){\r\n                orders[game][winPrice][i].transfer(toPlayer);\r\n                emit Winner(orders[game][winPrice][i], winPrice, toPlayer);\r\n            }   \r\n        }else{\r\n            emit Lose(winPrice, jackpot[game]);\r\n        }\r\n        \r\n        allTimeJackpot += toPlayer;\r\n        allTimePlayers += players[game].length;\r\n    }\r\n}",
  "sourcePath": "D:\\WORKSPACE\\TokenStart.IO\\pipot-smartcontract\\PIPOT\\contracts\\PIPOT.sol",
  "compiler": {
    "name": "solc",
    "version": "0.4.24+commit.e67f0147.Emscripten.clang"
  },
  "schemaVersion": "2.0.1",
  "updatedAt": "2018-10-22T14:56:37.817Z"
}